{
  "_format": "hh-sol-artifact-1",
  "contractName": "ConveyMarketplace",
  "sourceName": "contracts/ConveyMarketplace.sol",
  "abi": [
    {
      "inputs": [],
      "stateMutability": "nonpayable",
      "type": "constructor"
    },
    {
      "inputs": [
        {
          "internalType": "address",
          "name": "owner",
          "type": "address"
        }
      ],
      "name": "OwnableInvalidOwner",
      "type": "error"
    },
    {
      "inputs": [
        {
          "internalType": "address",
          "name": "account",
          "type": "address"
        }
      ],
      "name": "OwnableUnauthorizedAccount",
      "type": "error"
    },
    {
      "inputs": [],
      "name": "ReentrancyGuardReentrantCall",
      "type": "error"
    },
    {
      "anonymous": false,
      "inputs": [
        {
          "indexed": true,
          "internalType": "uint256",
          "name": "listingId",
          "type": "uint256"
        },
        {
          "indexed": true,
          "internalType": "address",
          "name": "buyer",
          "type": "address"
        },
        {
          "indexed": true,
          "internalType": "address",
          "name": "seller",
          "type": "address"
        },
        {
          "indexed": false,
          "internalType": "uint256",
          "name": "amountWei",
          "type": "uint256"
        }
      ],
      "name": "DirectPurchase",
      "type": "event"
    },
    {
      "anonymous": false,
      "inputs": [
        {
          "indexed": true,
          "internalType": "uint256",
          "name": "listingId",
          "type": "uint256"
        },
        {
          "indexed": true,
          "internalType": "address",
          "name": "buyer",
          "type": "address"
        },
        {
          "indexed": false,
          "internalType": "uint256",
          "name": "amountWei",
          "type": "uint256"
        }
      ],
      "name": "EscrowDeposited",
      "type": "event"
    },
    {
      "anonymous": false,
      "inputs": [
        {
          "indexed": false,
          "internalType": "uint16",
          "name": "newBps",
          "type": "uint16"
        }
      ],
      "name": "FeeBpsUpdated",
      "type": "event"
    },
    {
      "anonymous": false,
      "inputs": [
        {
          "indexed": true,
          "internalType": "address",
          "name": "owner",
          "type": "address"
        },
        {
          "indexed": false,
          "internalType": "uint256",
          "name": "amount",
          "type": "uint256"
        }
      ],
      "name": "FeesWithdrawn",
      "type": "event"
    },
    {
      "anonymous": false,
      "inputs": [
        {
          "indexed": true,
          "internalType": "uint256",
          "name": "listingId",
          "type": "uint256"
        },
        {
          "indexed": true,
          "internalType": "address",
          "name": "seller",
          "type": "address"
        },
        {
          "indexed": true,
          "internalType": "address",
          "name": "buyer",
          "type": "address"
        },
        {
          "indexed": false,
          "internalType": "uint256",
          "name": "amountWei",
          "type": "uint256"
        }
      ],
      "name": "FundsReleased",
      "type": "event"
    },
    {
      "anonymous": false,
      "inputs": [
        {
          "indexed": true,
          "internalType": "uint256",
          "name": "listingId",
          "type": "uint256"
        }
      ],
      "name": "ListingCancelled",
      "type": "event"
    },
    {
      "anonymous": false,
      "inputs": [
        {
          "indexed": true,
          "internalType": "uint256",
          "name": "listingId",
          "type": "uint256"
        },
        {
          "indexed": true,
          "internalType": "address",
          "name": "seller",
          "type": "address"
        },
        {
          "indexed": false,
          "internalType": "uint256",
          "name": "priceWei",
          "type": "uint256"
        },
        {
          "indexed": false,
          "internalType": "uint32",
          "name": "stock",
          "type": "uint32"
        }
      ],
      "name": "ListingCreated",
      "type": "event"
    },
    {
      "anonymous": false,
      "inputs": [
        {
          "indexed": true,
          "internalType": "uint256",
          "name": "listingId",
          "type": "uint256"
        },
        {
          "indexed": false,
          "internalType": "uint32",
          "name": "remainingStock",
          "type": "uint32"
        }
      ],
      "name": "ListingSold",
      "type": "event"
    },
    {
      "anonymous": false,
      "inputs": [
        {
          "indexed": true,
          "internalType": "uint256",
          "name": "listingId",
          "type": "uint256"
        },
        {
          "indexed": false,
          "internalType": "uint256",
          "name": "newPriceWei",
          "type": "uint256"
        },
        {
          "indexed": false,
          "internalType": "uint32",
          "name": "newStock",
          "type": "uint32"
        }
      ],
      "name": "ListingUpdated",
      "type": "event"
    },
    {
      "anonymous": false,
      "inputs": [
        {
          "indexed": true,
          "internalType": "uint256",
          "name": "offerId",
          "type": "uint256"
        },
        {
          "indexed": false,
          "internalType": "uint256",
          "name": "finalAmountWei",
          "type": "uint256"
        }
      ],
      "name": "OfferAccepted",
      "type": "event"
    },
    {
      "anonymous": false,
      "inputs": [
        {
          "indexed": true,
          "internalType": "uint256",
          "name": "offerId",
          "type": "uint256"
        }
      ],
      "name": "OfferCancelled",
      "type": "event"
    },
    {
      "anonymous": false,
      "inputs": [
        {
          "indexed": true,
          "internalType": "uint256",
          "name": "offerId",
          "type": "uint256"
        },
        {
          "indexed": false,
          "internalType": "uint256",
          "name": "counterWei",
          "type": "uint256"
        }
      ],
      "name": "OfferCountered",
      "type": "event"
    },
    {
      "anonymous": false,
      "inputs": [
        {
          "indexed": true,
          "internalType": "uint256",
          "name": "offerId",
          "type": "uint256"
        },
        {
          "indexed": true,
          "internalType": "uint256",
          "name": "listingId",
          "type": "uint256"
        },
        {
          "indexed": true,
          "internalType": "address",
          "name": "buyer",
          "type": "address"
        },
        {
          "indexed": false,
          "internalType": "uint256",
          "name": "depositWei",
          "type": "uint256"
        }
      ],
      "name": "OfferCreated",
      "type": "event"
    },
    {
      "anonymous": false,
      "inputs": [
        {
          "indexed": true,
          "internalType": "uint256",
          "name": "offerId",
          "type": "uint256"
        }
      ],
      "name": "OfferRejected",
      "type": "event"
    },
    {
      "anonymous": false,
      "inputs": [
        {
          "indexed": true,
          "internalType": "address",
          "name": "previousOwner",
          "type": "address"
        },
        {
          "indexed": true,
          "internalType": "address",
          "name": "newOwner",
          "type": "address"
        }
      ],
      "name": "OwnershipTransferred",
      "type": "event"
    },
    {
      "anonymous": false,
      "inputs": [
        {
          "indexed": true,
          "internalType": "address",
          "name": "seller",
          "type": "address"
        },
        {
          "indexed": false,
          "internalType": "uint256",
          "name": "amountWei",
          "type": "uint256"
        }
      ],
      "name": "SellerWithdrawal",
      "type": "event"
    },
    {
      "inputs": [],
      "name": "MAX_FEE_BPS",
      "outputs": [
        {
          "internalType": "uint16",
          "name": "",
          "type": "uint16"
        }
      ],
      "stateMutability": "view",
      "type": "function"
    },
    {
      "inputs": [
        {
          "internalType": "uint256",
          "name": "_offerId",
          "type": "uint256"
        }
      ],
      "name": "acceptCounter",
      "outputs": [],
      "stateMutability": "payable",
      "type": "function"
    },
    {
      "inputs": [
        {
          "internalType": "uint256",
          "name": "_offerId",
          "type": "uint256"
        }
      ],
      "name": "acceptOffer",
      "outputs": [],
      "stateMutability": "nonpayable",
      "type": "function"
    },
    {
      "inputs": [
        {
          "internalType": "uint256",
          "name": "_listingId",
          "type": "uint256"
        }
      ],
      "name": "buyDirect",
      "outputs": [],
      "stateMutability": "payable",
      "type": "function"
    },
    {
      "inputs": [
        {
          "internalType": "uint256",
          "name": "_listingId",
          "type": "uint256"
        }
      ],
      "name": "cancelListing",
      "outputs": [],
      "stateMutability": "nonpayable",
      "type": "function"
    },
    {
      "inputs": [
        {
          "internalType": "uint256",
          "name": "_offerId",
          "type": "uint256"
        }
      ],
      "name": "cancelOffer",
      "outputs": [],
      "stateMutability": "nonpayable",
      "type": "function"
    },
    {
      "inputs": [
        {
          "internalType": "uint256",
          "name": "_offerId",
          "type": "uint256"
        },
        {
          "internalType": "uint256",
          "name": "_counterWei",
          "type": "uint256"
        }
      ],
      "name": "counterOffer",
      "outputs": [],
      "stateMutability": "nonpayable",
      "type": "function"
    },
    {
      "inputs": [
        {
          "internalType": "string",
          "name": "_title",
          "type": "string"
        },
        {
          "internalType": "string",
          "name": "_description",
          "type": "string"
        },
        {
          "internalType": "string",
          "name": "_imageURI",
          "type": "string"
        },
        {
          "internalType": "uint256",
          "name": "_priceWei",
          "type": "uint256"
        },
        {
          "internalType": "uint32",
          "name": "_stock",
          "type": "uint32"
        }
      ],
      "name": "createListing",
      "outputs": [
        {
          "internalType": "uint256",
          "name": "listingId",
          "type": "uint256"
        }
      ],
      "stateMutability": "nonpayable",
      "type": "function"
    },
    {
      "inputs": [
        {
          "internalType": "uint256",
          "name": "_listingId",
          "type": "uint256"
        }
      ],
      "name": "depositToEscrow",
      "outputs": [],
      "stateMutability": "payable",
      "type": "function"
    },
    {
      "inputs": [
        {
          "internalType": "uint256",
          "name": "",
          "type": "uint256"
        }
      ],
      "name": "escrows",
      "outputs": [
        {
          "internalType": "address payable",
          "name": "buyer",
          "type": "address"
        },
        {
          "internalType": "uint256",
          "name": "amountWei",
          "type": "uint256"
        }
      ],
      "stateMutability": "view",
      "type": "function"
    },
    {
      "inputs": [
        {
          "internalType": "uint256",
          "name": "_listingId",
          "type": "uint256"
        }
      ],
      "name": "getListingOffers",
      "outputs": [
        {
          "internalType": "uint256[]",
          "name": "",
          "type": "uint256[]"
        }
      ],
      "stateMutability": "view",
      "type": "function"
    },
    {
      "inputs": [
        {
          "internalType": "uint256",
          "name": "_offerId",
          "type": "uint256"
        }
      ],
      "name": "getOfferDetails",
      "outputs": [
        {
          "internalType": "uint256",
          "name": "offerId",
          "type": "uint256"
        },
        {
          "internalType": "uint256",
          "name": "listingId",
          "type": "uint256"
        },
        {
          "internalType": "address",
          "name": "buyer",
          "type": "address"
        },
        {
          "internalType": "uint256",
          "name": "depositWei",
          "type": "uint256"
        },
        {
          "internalType": "uint256",
          "name": "counterWei",
          "type": "uint256"
        },
        {
          "internalType": "enum ConveyMarketplace.OfferStatus",
          "name": "status",
          "type": "uint8"
        }
      ],
      "stateMutability": "view",
      "type": "function"
    },
    {
      "inputs": [
        {
          "internalType": "string",
          "name": "_title",
          "type": "string"
        },
        {
          "internalType": "string",
          "name": "_description",
          "type": "string"
        },
        {
          "internalType": "string",
          "name": "_imageURI",
          "type": "string"
        },
        {
          "internalType": "uint256",
          "name": "_priceWei",
          "type": "uint256"
        },
        {
          "internalType": "uint32",
          "name": "_stock",
          "type": "uint32"
        }
      ],
      "name": "listProduct",
      "outputs": [
        {
          "internalType": "uint256",
          "name": "listingId",
          "type": "uint256"
        }
      ],
      "stateMutability": "nonpayable",
      "type": "function"
    },
    {
      "inputs": [],
      "name": "listingCount",
      "outputs": [
        {
          "internalType": "uint256",
          "name": "",
          "type": "uint256"
        }
      ],
      "stateMutability": "view",
      "type": "function"
    },
    {
      "inputs": [
        {
          "internalType": "uint256",
          "name": "",
          "type": "uint256"
        }
      ],
      "name": "listings",
      "outputs": [
        {
          "internalType": "uint256",
          "name": "id",
          "type": "uint256"
        },
        {
          "internalType": "address payable",
          "name": "seller",
          "type": "address"
        },
        {
          "internalType": "string",
          "name": "title",
          "type": "string"
        },
        {
          "internalType": "string",
          "name": "description",
          "type": "string"
        },
        {
          "internalType": "string",
          "name": "imageURI",
          "type": "string"
        },
        {
          "internalType": "uint256",
          "name": "priceWei",
          "type": "uint256"
        },
        {
          "internalType": "uint32",
          "name": "stock",
          "type": "uint32"
        },
        {
          "internalType": "enum ConveyMarketplace.ListingStatus",
          "name": "status",
          "type": "uint8"
        }
      ],
      "stateMutability": "view",
      "type": "function"
    },
    {
      "inputs": [
        {
          "internalType": "uint256",
          "name": "_listingId",
          "type": "uint256"
        }
      ],
      "name": "makeOffer",
      "outputs": [
        {
          "internalType": "uint256",
          "name": "offerId",
          "type": "uint256"
        }
      ],
      "stateMutability": "payable",
      "type": "function"
    },
    {
      "inputs": [],
      "name": "offerCount",
      "outputs": [
        {
          "internalType": "uint256",
          "name": "",
          "type": "uint256"
        }
      ],
      "stateMutability": "view",
      "type": "function"
    },
    {
      "inputs": [
        {
          "internalType": "uint256",
          "name": "",
          "type": "uint256"
        }
      ],
      "name": "offers",
      "outputs": [
        {
          "internalType": "uint256",
          "name": "id",
          "type": "uint256"
        },
        {
          "internalType": "uint256",
          "name": "listingId",
          "type": "uint256"
        },
        {
          "internalType": "address payable",
          "name": "buyer",
          "type": "address"
        },
        {
          "internalType": "uint256",
          "name": "depositWei",
          "type": "uint256"
        },
        {
          "internalType": "uint256",
          "name": "counterWei",
          "type": "uint256"
        },
        {
          "internalType": "enum ConveyMarketplace.OfferStatus",
          "name": "status",
          "type": "uint8"
        }
      ],
      "stateMutability": "view",
      "type": "function"
    },
    {
      "inputs": [],
      "name": "owner",
      "outputs": [
        {
          "internalType": "address",
          "name": "",
          "type": "address"
        }
      ],
      "stateMutability": "view",
      "type": "function"
    },
    {
      "inputs": [
        {
          "internalType": "address",
          "name": "",
          "type": "address"
        }
      ],
      "name": "pendingWithdrawals",
      "outputs": [
        {
          "internalType": "uint256",
          "name": "",
          "type": "uint256"
        }
      ],
      "stateMutability": "view",
      "type": "function"
    },
    {
      "inputs": [],
      "name": "platformFeeBps",
      "outputs": [
        {
          "internalType": "uint16",
          "name": "",
          "type": "uint16"
        }
      ],
      "stateMutability": "view",
      "type": "function"
    },
    {
      "inputs": [
        {
          "internalType": "uint256",
          "name": "_offerId",
          "type": "uint256"
        }
      ],
      "name": "rejectOffer",
      "outputs": [],
      "stateMutability": "nonpayable",
      "type": "function"
    },
    {
      "inputs": [
        {
          "internalType": "uint256",
          "name": "_listingId",
          "type": "uint256"
        }
      ],
      "name": "releaseFunds",
      "outputs": [],
      "stateMutability": "nonpayable",
      "type": "function"
    },
    {
      "inputs": [],
      "name": "renounceOwnership",
      "outputs": [],
      "stateMutability": "nonpayable",
      "type": "function"
    },
    {
      "inputs": [
        {
          "internalType": "uint16",
          "name": "_bps",
          "type": "uint16"
        }
      ],
      "name": "setPlatformFee",
      "outputs": [],
      "stateMutability": "nonpayable",
      "type": "function"
    },
    {
      "inputs": [
        {
          "internalType": "address",
          "name": "newOwner",
          "type": "address"
        }
      ],
      "name": "transferOwnership",
      "outputs": [],
      "stateMutability": "nonpayable",
      "type": "function"
    },
    {
      "inputs": [
        {
          "internalType": "uint256",
          "name": "_listingId",
          "type": "uint256"
        },
        {
          "internalType": "uint256",
          "name": "_newPriceWei",
          "type": "uint256"
        },
        {
          "internalType": "uint32",
          "name": "_newStock",
          "type": "uint32"
        }
      ],
      "name": "updateListing",
      "outputs": [],
      "stateMutability": "nonpayable",
      "type": "function"
    },
    {
      "inputs": [],
      "name": "withdraw",
      "outputs": [],
      "stateMutability": "nonpayable",
      "type": "function"
    },
    {
      "inputs": [],
      "name": "withdrawFees",
      "outputs": [],
      "stateMutability": "nonpayable",
      "type": "function"
    },
    {
      "stateMutability": "payable",
      "type": "receive"
    }
  ],
  "bytecode": "0x60806040523480156200001157600080fd5b5060017f9b779b17422d0df92223018b32b4d1fa46e071723d6817e2486d003becc55f005533806200005d57604051631e4fbdf760e01b81526000600482015260240160405180910390fd5b62000068816200007d565b506000805461ffff60a01b19169055620000cd565b600080546001600160a01b038381166001600160a01b0319831681178455604051919092169283917f8be0079c531659141344cd1fd0a4f28419497f9722a3daafe3b4186f6b6457e09190a35050565b6131d880620000dd6000396000f3fe6080604052600436106101c65760003560e01c806388b10c75116100f7578063d55be8c611610095578063f2fde38b11610064578063f2fde38b14610593578063f3f43703146105b3578063fa305322146105e0578063fbb1e4971461060057600080fd5b8063d55be8c614610516578063daa41e701461052c578063de74e57b1461053f578063ef706adf1461057357600080fd5b80639a2f6474116100d15780639a2f6474146104ba578063a9b07c26146104cd578063bac30b51146104e3578063c815729d146104f657600080fd5b806388b10c75146104155780638a72ea6a146104355780638da5cb5b1461049257600080fd5b80634c85ee651161016457806359ad070c1161013e57806359ad070c1461034e5780635cbc742c146103c0578063715018a6146103e057806375c74008146103f557600080fd5b80634c85ee651461034e5780634d68282f1461036e5780634fb64be21461038e57600080fd5b806322dcd13e116101a057806322dcd13e146102cf578063305a67a8146103045780633ccfd60b14610324578063476343ee1461033957600080fd5b8063012f52ee1461023257806303bde769146102965780631115c24d146102ab57600080fd5b3661022d5760405162461bcd60e51b815260206004820152602c60248201527f557365206275794469726563742c206d616b654f666665722c206f722064657060448201526b6f736974546f457363726f7760a01b60648201526084015b60405180910390fd5b600080fd5b34801561023e57600080fd5b5061027261024d366004612aeb565b600560205260009081526040902080546001909101546001600160a01b039091169082565b604080516001600160a01b0390931683526020830191909152015b60405180910390f35b6102a96102a4366004612aeb565b61062d565b005b3480156102b757600080fd5b506102c160025481565b60405190815260200161028d565b3480156102db57600080fd5b506000546102f190600160a01b900461ffff1681565b60405161ffff909116815260200161028d565b34801561031057600080fd5b506102a961031f366004612aeb565b61092f565b34801561033057600080fd5b506102a9610a2d565b34801561034557600080fd5b506102a9610b74565b34801561035a57600080fd5b506102c1610369366004612b61565b610ca5565b34801561037a57600080fd5b506102a9610389366004612aeb565b610cc4565b34801561039a57600080fd5b506103ae6103a9366004612aeb565b610ef0565b60405161028d96959493929190612c3e565b3480156103cc57600080fd5b506102a96103db366004612c81565b610f74565b3480156103ec57600080fd5b506102a961101a565b34801561040157600080fd5b506102a9610410366004612cac565b61102c565b34801561042157600080fd5b506102a9610430366004612aeb565b6111ce565b34801561044157600080fd5b506103ae610450366004612aeb565b6004602081905260009182526040909120805460018201546002830154600384015494840154600590940154929491936001600160a01b039091169260ff1686565b34801561049e57600080fd5b506000546040516001600160a01b03909116815260200161028d565b6102c16104c8366004612aeb565b6113ac565b3480156104d957600080fd5b506102c160015481565b6102a96104f1366004612aeb565b611670565b34801561050257600080fd5b506102a9610511366004612aeb565b611b2e565b34801561052257600080fd5b506102f16101f481565b6102a961053a366004612aeb565b611e38565b34801561054b57600080fd5b5061055f61055a366004612aeb565b612066565b60405161028d989796959493929190612d14565b34801561057f57600080fd5b506102a961058e366004612aeb565b612255565b34801561059f57600080fd5b506102a96105ae366004612d9f565b61245c565b3480156105bf57600080fd5b506102c16105ce366004612d9f565b60066020526000908152604090205481565b3480156105ec57600080fd5b506102a96105fb366004612dc8565b612497565b34801561060c57600080fd5b5061062061061b366004612aeb565b612640565b60405161028d9190612dfd565b6106356126a2565b8060008111801561064857506001548111155b6106645760405162461bcd60e51b815260040161022490612e41565b6000828152600360205260408120906006820154600160201b900460ff16600281111561069357610693612c14565b146106b05760405162461bcd60e51b815260040161022490612e6c565b60018101546001600160a01b0316330361070c5760405162461bcd60e51b815260206004820152601a60248201527f53656c6c65722063616e6e6f7420627579206f776e206974656d0000000000006044820152606401610224565b8060050154341461075f5760405162461bcd60e51b815260206004820152601860248201527f53656e64206578616374206c697374696e6720707269636500000000000000006044820152606401610224565b600681015463ffffffff166107865760405162461bcd60e51b815260040161022490612e98565b60068101805463ffffffff1690600061079e83612ed4565b82546101009290920a63ffffffff818102199093169183160217909155600683015416600003905061081957600681018054600160201b64ff00000000199091161790556040516000815283907f933aa6122dd0e3fe9ff84bee0cd4d75a8f5c6e80826dcd21396b447ea05acb3e9060200160405180910390a25b600080546127109061083690600160a01b900461ffff1634612ef4565b6108409190612f11565b9050600061084e8234612f33565b60018401546040519192506000916001600160a01b039091169083908381818185875af1925050503d80600081146108a2576040519150601f19603f3d011682016040523d82523d6000602084013e6108a7565b606091505b50509050806108c85760405162461bcd60e51b815260040161022490612f46565b60018401546040513481526001600160a01b0390911690339088907f411e2bf521146bf90bd5f221108b2b0bd3bb58171d59cd581bae96049c0fac7a9060200160405180910390a4505050505061092c600160008051602061318383398151915255565b50565b8060008111801561094257506001548111155b61095e5760405162461bcd60e51b815260040161022490612e41565b60008281526003602052604090206001015482906001600160a01b031633146109995760405162461bcd60e51b815260040161022490612f7d565b6000838152600360205260408120906006820154600160201b900460ff1660028111156109c8576109c8612c14565b146109e55760405162461bcd60e51b815260040161022490612e6c565b60068101805464ff00000000191664020000000017905560405184907f411aee90354c51b1b04cd563fcab2617142a9d50da19232d888547c8a1b7fd8a90600090a250505050565b610a356126a2565b3360009081526006602052604090205480610a885760405162461bcd60e51b81526020600482015260136024820152724e6f7468696e6720746f20776974686472617760681b6044820152606401610224565b336000818152600660205260408082208290555190919083908381818185875af1925050503d8060008114610ad9576040519150601f19603f3d011682016040523d82523d6000602084013e610ade565b606091505b5050905080610b235760405162461bcd60e51b815260206004820152601160248201527015da5d1a191c985dd85b0819985a5b1959607a1b6044820152606401610224565b60405182815233907ff0015a56dd924d608ce6c5729e2083095b5aa522321cf1baefce60637341e34c906020015b60405180910390a25050610b72600160008051602061318383398151915255565b565b610b7c6126be565b610b846126a2565b4780610bc85760405162461bcd60e51b81526020600482015260136024820152724e6f7468696e6720746f20776974686472617760681b6044820152606401610224565b600080546040516001600160a01b039091169083908381818185875af1925050503d8060008114610c15576040519150601f19603f3d011682016040523d82523d6000602084013e610c1a565b606091505b5050905080610c5f5760405162461bcd60e51b815260206004820152601160248201527015da5d1a191c985dd85b0819985a5b1959607a1b6044820152606401610224565b6000546001600160a01b03166001600160a01b03167fc0819c13be868895eb93e40eaceb96de976442fa1d404e5c55f14bb65a8c489a83604051610b5191815260200190565b6000610cb789898989898989896126eb565b9998505050505050505050565b80600081118015610cd757506001548111155b610cf35760405162461bcd60e51b815260040161022490612e41565b60008281526003602052604090206001015482906001600160a01b03163314610d2e5760405162461bcd60e51b815260040161022490612f7d565b60008381526003602090815260408083206005909252822090916006830154600160201b900460ff166002811115610d6857610d68612c14565b14610d855760405162461bcd60e51b815260040161022490612e6c565b600682015463ffffffff16610dac5760405162461bcd60e51b815260040161022490612e98565b6000816001015411610df45760405162461bcd60e51b8152602060048201526011602482015270115cd8dc9bddc81b9bdd08199d5b991959607a1b6044820152606401610224565b6001808201548254600088815260056020526040812080546001600160a01b031916815590930192909255906001600160a01b0316610e32846129d8565b6000805461271090610e4f90600160a01b900461ffff1685612ef4565b610e599190612f11565b90506000610e678285612f33565b60018701546001600160a01b0316600090815260066020526040812080549293508392909190610e98908490612fa5565b909155505060018601546040518581526001600160a01b038581169216908b907f44578cae325142d40e20755dd70a4d16c3270e80fc8c521b5f72969e93cd2d679060200160405180910390a4505050505050505050565b60008060008060008086600081118015610f0c57506002548111155b610f285760405162461bcd60e51b815260040161022490612fb8565b50505060009485525050600460208190526040909320805460018201546002830154600384015496840154600590940154929791966001600160a01b039091169550935060ff90911690565b610f7c6126be565b6101f461ffff82161115610fc45760405162461bcd60e51b815260206004820152600f60248201526e08ccaca40caf0c6cacac8e640dac2f608b1b6044820152606401610224565b6000805461ffff60a01b1916600160a01b61ffff8416908102919091179091556040519081527f1582462fa18a3c32e1179d055ebefbaee59312efe6743b4d57fc45793b3066a79060200160405180910390a150565b6110226126be565b610b726000612a6b565b8160008111801561103f57506002548111155b61105b5760405162461bcd60e51b815260040161022490612fb8565b600083815260046020908152604080832060019081015480855260039093529220909101546001600160a01b031633146110a75760405162461bcd60e51b815260040161022490612f7d565b600084815260046020526040812090600582015460ff1660048111156110cf576110cf612c14565b14806110f357506001600582015460ff1660048111156110f1576110f1612c14565b145b6111365760405162461bcd60e51b81526020600482015260146024820152734f66666572206e6f74206e65676f746961626c6560601b6044820152606401610224565b6000841161117c5760405162461bcd60e51b81526020600482015260136024820152720436f756e746572206d757374206265203e203606c1b6044820152606401610224565b6004810184905560058101805460ff1916600117905560405184815285907fca8c5191c7d94cc4db313f6cca791559787dc2e7794021a825e62df9564f868e9060200160405180910390a25050505050565b6111d66126a2565b806000811180156111e957506002548111155b6112055760405162461bcd60e51b815260040161022490612fb8565b600082815260046020908152604080832060019081015480855260039093529220909101546001600160a01b031633146112515760405162461bcd60e51b815260040161022490612f7d565b600083815260046020526040812090600582015460ff16600481111561127957611279612c14565b148061129d57506001600582015460ff16600481111561129b5761129b612c14565b145b6112dc5760405162461bcd60e51b815260206004820152601060248201526f4f66666572206e6f742061637469766560801b6044820152606401610224565b60058101805460ff191660039081179091556002820154908201546040516000926001600160a01b031691908381818185875af1925050503d8060008114611340576040519150601f19603f3d011682016040523d82523d6000602084013e611345565b606091505b50509050806113665760405162461bcd60e51b815260040161022490612fe1565b60405185907facb9cd98d41dc8854281172ab2a764d949b62b51776edd911f85376ed2eca64b90600090a25050505061092c600160008051602061318383398151915255565b60006113b66126a2565b816000811180156113c957506001548111155b6113e55760405162461bcd60e51b815260040161022490612e41565b6000838152600360205260408120906006820154600160201b900460ff16600281111561141457611414612c14565b146114315760405162461bcd60e51b815260040161022490612e6c565b60018101546001600160a01b0316330361148d5760405162461bcd60e51b815260206004820152601f60248201527f53656c6c65722063616e6e6f74206f66666572206f6e206f776e206974656d006044820152606401610224565b600034116114dd5760405162461bcd60e51b815260206004820152601860248201527f4f6666657220616d6f756e74206d757374206265203e203000000000000000006044820152606401610224565b600681015463ffffffff166115045760405162461bcd60e51b815260040161022490612e98565b6002805490600061151483613008565b919050555060025492506040518060c00160405280848152602001858152602001336001600160a01b03168152602001348152602001600081526020016000600481111561156457611564612c14565b90526000848152600460208181526040928390208451815590840151600180830191909155928401516002820180546001600160a01b0319166001600160a01b039092169190911790556060840151600382015560808401518183015560a084015160058201805492949193909260ff1916919084908111156115e9576115e9612c14565b02179055505050600084815260076020908152604080832080546001810182559084529190922001849055513390859085907f32645f28ae455f14af7a547728c579fc5a3f52d9c6db6d22a0de0ded95c82cbe9061164a9034815260200190565b60405180910390a4505061166b600160008051602061318383398151915255565b919050565b6116786126a2565b8060008111801561168b57506002548111155b6116a75760405162461bcd60e51b815260040161022490612fb8565b60008281526004602052604090206002015482906001600160a01b031633146117025760405162461bcd60e51b815260206004820152600d60248201526c2737ba103a343290313abcb2b960991b6044820152606401610224565b600083815260046020908152604080832060018082015485526003909352922090600583015460ff16600481111561173c5761173c612c14565b146117895760405162461bcd60e51b815260206004820152601a60248201527f4e6f20636f756e746572206f6666657220746f206163636570740000000000006044820152606401610224565b60006006820154600160201b900460ff1660028111156117ab576117ab612c14565b146117c85760405162461bcd60e51b815260040161022490612e6c565b600681015463ffffffff166117ef5760405162461bcd60e51b815260040161022490612e98565b600482015460038301548111156118695760008360030154826118129190612f33565b90508034146118635760405162461bcd60e51b815260206004820152601860248201527f53656e6420657861637420746f702d757020616d6f756e7400000000000000006044820152606401610224565b506119b3565b826003015481101561196d5734156118d35760405162461bcd60e51b815260206004820152602760248201527f446f206e6f742073656e642076616c7565207768656e20636f756e746572206960448201526639903637bbb2b960c91b6064820152608401610224565b60008184600301546118e59190612f33565b6003850183905560028501546040519192506000916001600160a01b039091169083908381818185875af1925050503d8060008114611940576040519150601f19603f3d011682016040523d82523d6000602084013e611945565b606091505b50509050806119665760405162461bcd60e51b815260040161022490612fe1565b50506119b3565b34156119b35760405162461bcd60e51b8152602060048201526015602482015274139bc8195e1d1c98481d985b1d59481b9959591959605a1b6044820152606401610224565b60058301805460ff1916600217905560038301819055806119d3836129d8565b60008054612710906119f090600160a01b900461ffff1684612ef4565b6119fa9190612f11565b90506000611a088284612f33565b60018601546040519192506000916001600160a01b039091169083908381818185875af1925050503d8060008114611a5c576040519150601f19603f3d011682016040523d82523d6000602084013e611a61565b606091505b5050905080611a825760405162461bcd60e51b815260040161022490612f46565b897f397f87b3946767b09967764d50032941de13a2606bcb39dfed61d7b1ed0192cc85604051611ab491815260200190565b60405180910390a26002870154600187810154908901546040518781526001600160a01b0393841693909216917f44578cae325142d40e20755dd70a4d16c3270e80fc8c521b5f72969e93cd2d679060200160405180910390a450505050505050505061092c600160008051602061318383398151915255565b611b366126a2565b80600081118015611b4957506002548111155b611b655760405162461bcd60e51b815260040161022490612fb8565b600082815260046020908152604080832060019081015480855260039093529220909101546001600160a01b03163314611bb15760405162461bcd60e51b815260040161022490612f7d565b600083815260046020908152604080832060018101548452600390925282209091600583015460ff166004811115611beb57611beb612c14565b1480611c0f57506001600583015460ff166004811115611c0d57611c0d612c14565b145b611c5b5760405162461bcd60e51b815260206004820152601d60248201527f4f66666572206e6f7420696e206e65676f746961626c652073746174650000006044820152606401610224565b60006006820154600160201b900460ff166002811115611c7d57611c7d612c14565b14611c9a5760405162461bcd60e51b815260040161022490612e6c565b600681015463ffffffff16611cc15760405162461bcd60e51b815260040161022490612e98565b600382015460058301805460ff19166002179055611cde826129d8565b6000805461271090611cfb90600160a01b900461ffff1684612ef4565b611d059190612f11565b90506000611d138284612f33565b60018501546040519192506000916001600160a01b039091169083908381818185875af1925050503d8060008114611d67576040519150601f19603f3d011682016040523d82523d6000602084013e611d6c565b606091505b5050905080611d8d5760405162461bcd60e51b815260040161022490612f46565b887f397f87b3946767b09967764d50032941de13a2606bcb39dfed61d7b1ed0192cc85604051611dbf91815260200190565b60405180910390a26002860154600186810154908801546040518781526001600160a01b0393841693909216917f44578cae325142d40e20755dd70a4d16c3270e80fc8c521b5f72969e93cd2d679060200160405180910390a4505050505050505061092c600160008051602061318383398151915255565b611e406126a2565b80600081118015611e5357506001548111155b611e6f5760405162461bcd60e51b815260040161022490612e41565b60008281526003602090815260408083206005909252822090916006830154600160201b900460ff166002811115611ea957611ea9612c14565b14611ec65760405162461bcd60e51b815260040161022490612e6c565b600682015463ffffffff16611eed5760405162461bcd60e51b815260040161022490612e98565b60018201546001600160a01b03163303611f415760405162461bcd60e51b815260206004820152601560248201527414d95b1b195c8818d85b9b9bdd0819195c1bdcda5d605a1b6044820152606401610224565b60003411611f875760405162461bcd60e51b815260206004820152601360248201527204465706f736974206d757374206265203e203606c1b6044820152606401610224565b600181015415611fd15760405162461bcd60e51b8152602060048201526015602482015274115cd8dc9bddc8185b1c9958591e48199d5b991959605a1b6044820152606401610224565b6040805180820182523380825234602080840182815260008a815260058352869020945185546001600160a01b0319166001600160a01b039091161785555160019094019390935592519283529186917f9a57bbb234b70fc26fbb5c8d65f00c0bba23b19c4a7bb1aedb26c7a04269f747910160405180910390a350505061092c600160008051602061318383398151915255565b60036020526000908152604090208054600182015460028301805492936001600160a01b039092169261209890613021565b80601f01602080910402602001604051908101604052809291908181526020018280546120c490613021565b80156121115780601f106120e657610100808354040283529160200191612111565b820191906000526020600020905b8154815290600101906020018083116120f457829003601f168201915b50505050509080600301805461212690613021565b80601f016020809104026020016040519081016040528092919081815260200182805461215290613021565b801561219f5780601f106121745761010080835404028352916020019161219f565b820191906000526020600020905b81548152906001019060200180831161218257829003601f168201915b5050505050908060040180546121b490613021565b80601f01602080910402602001604051908101604052809291908181526020018280546121e090613021565b801561222d5780601f106122025761010080835404028352916020019161222d565b820191906000526020600020905b81548152906001019060200180831161221057829003601f168201915b50505050600583015460069093015491929163ffffffff81169150600160201b900460ff1688565b61225d6126a2565b8060008111801561227057506002548111155b61228c5760405162461bcd60e51b815260040161022490612fb8565b60008281526004602052604090206002015482906001600160a01b031633146122e75760405162461bcd60e51b815260206004820152600d60248201526c2737ba103a343290313abcb2b960991b6044820152606401610224565b600083815260046020526040812090600582015460ff16600481111561230f5761230f612c14565b148061233357506001600582015460ff16600481111561233157612331612c14565b145b61238e5760405162461bcd60e51b815260206004820152602660248201527f43616e6e6f742063616e63656c3a206f6666657220616c72656164792066696e604482015265185b1a5cd95960d21b6064820152608401610224565b60058101805460ff19166004179055600281015460038201546040516000926001600160a01b031691908381818185875af1925050503d80600081146123f0576040519150601f19603f3d011682016040523d82523d6000602084013e6123f5565b606091505b50509050806124165760405162461bcd60e51b815260040161022490612fe1565b60405185907fc28b4aed030bfacc245c0501326e1beb8c0ef0d60e4edc21067fdeb52da2a7aa90600090a25050505061092c600160008051602061318383398151915255565b6124646126be565b6001600160a01b03811661248e57604051631e4fbdf760e01b815260006004820152602401610224565b61092c81612a6b565b826000811180156124aa57506001548111155b6124c65760405162461bcd60e51b815260040161022490612e41565b60008481526003602052604090206001015484906001600160a01b031633146125015760405162461bcd60e51b815260040161022490612f7d565b6000858152600360205260408120906006820154600160201b900460ff16600281111561253057612530612c14565b1461254d5760405162461bcd60e51b815260040161022490612e6c565b600085116125915760405162461bcd60e51b815260206004820152601160248201527005072696365206d757374206265203e203607c1b6044820152606401610224565b60008463ffffffff16116125db5760405162461bcd60e51b8152602060048201526011602482015270053746f636b206d757374206265203e203607c1b6044820152606401610224565b6005810185905560068101805463ffffffff191663ffffffff861690811790915560408051878152602081019290925287917fd92c1085af5ea469749c207678d71f78f0691ea8f49269a66d03f7d52d301ddf910160405180910390a2505050505050565b60008181526007602090815260409182902080548351818402810184019094528084526060939283018282801561269657602002820191906000526020600020905b815481526020019060010190808311612682575b50505050509050919050565b6126aa612abb565b600260008051602061318383398151915255565b6000546001600160a01b03163314610b725760405163118cdaa760e01b8152336004820152602401610224565b60008761272b5760405162461bcd60e51b815260206004820152600e60248201526d151a5d1b19481c995c5d5a5c995960921b6044820152606401610224565b6000831161276f5760405162461bcd60e51b815260206004820152601160248201527005072696365206d757374206265203e203607c1b6044820152606401610224565b60008263ffffffff16116127b95760405162461bcd60e51b8152602060048201526011602482015270053746f636b206d757374206265203e203607c1b6044820152606401610224565b600180549060006127c983613008565b91905055506001549050604051806101000160405280828152602001336001600160a01b031681526020018a8a8080601f016020809104026020016040519081016040528093929190818152602001838380828437600092019190915250505090825250604080516020601f8b0181900481028201810190925289815291810191908a908a9081908401838280828437600092019190915250505090825250604080516020601f89018190048102820181019092528781529181019190889088908190840183828082843760009201829052509385525050506020820186905263ffffffff8516604083015260609091015260008281526003602090815260409182902083518155908301516001820180546001600160a01b0319166001600160a01b0390921691909117905590820151600282019061290990826130c2565b506060820151600382019061291e90826130c2565b506080820151600482019061293390826130c2565b5060a0820151600582015560c082015160068201805463ffffffff90921663ffffffff1983168117825560e08501519264ffffffffff191617600160201b83600281111561298357612983612c14565b0217905550506040805185815263ffffffff8516602082015233925083917ffbb355003e56fb4ee429da105481e52d0edbf8833da523f32076be2249749858910160405180910390a398975050505050505050565b60068101805463ffffffff169060006129f083612ed4565b82546101009290920a63ffffffff818102199093169183160217909155600683015416600003905061092c5760068101805464ff000000001916600160201b1790558054604080516000815290517f933aa6122dd0e3fe9ff84bee0cd4d75a8f5c6e80826dcd21396b447ea05acb3e9181900360200190a250565b600080546001600160a01b038381166001600160a01b0319831681178455604051919092169283917f8be0079c531659141344cd1fd0a4f28419497f9722a3daafe3b4186f6b6457e09190a35050565b60008051602061318383398151915254600203610b7257604051633ee5aeb560e01b815260040160405180910390fd5b600060208284031215612afd57600080fd5b5035919050565b60008083601f840112612b1657600080fd5b50813567ffffffffffffffff811115612b2e57600080fd5b602083019150836020828501011115612b4657600080fd5b9250929050565b803563ffffffff8116811461166b57600080fd5b60008060008060008060008060a0898b031215612b7d57600080fd5b883567ffffffffffffffff80821115612b9557600080fd5b612ba18c838d01612b04565b909a50985060208b0135915080821115612bba57600080fd5b612bc68c838d01612b04565b909850965060408b0135915080821115612bdf57600080fd5b50612bec8b828c01612b04565b90955093505060608901359150612c0560808a01612b4d565b90509295985092959890939650565b634e487b7160e01b600052602160045260246000fd5b60058110612c3a57612c3a612c14565b9052565b868152602081018690526001600160a01b0385166040820152606081018490526080810183905260c08101612c7660a0830184612c2a565b979650505050505050565b600060208284031215612c9357600080fd5b813561ffff81168114612ca557600080fd5b9392505050565b60008060408385031215612cbf57600080fd5b50508035926020909101359150565b6000815180845260005b81811015612cf457602081850181015186830182015201612cd8565b506000602082860101526020601f19601f83011685010191505092915050565b8881526001600160a01b038816602082015261010060408201819052600090612d3f8382018a612cce565b90508281036060840152612d538189612cce565b90508281036080840152612d678188612cce565b9150508460a083015263ffffffff841660c083015260038310612d8c57612d8c612c14565b8260e08301529998505050505050505050565b600060208284031215612db157600080fd5b81356001600160a01b0381168114612ca557600080fd5b600080600060608486031215612ddd57600080fd5b8335925060208401359150612df460408501612b4d565b90509250925092565b6020808252825182820181905260009190848201906040850190845b81811015612e3557835183529284019291840191600101612e19565b50909695505050505050565b602080825260119082015270131a5cdd1a5b99c81b9bdd08199bdd5b99607a1b604082015260600190565b6020808252601290820152714c697374696e67206e6f742061637469766560701b604082015260600190565b6020808252600c908201526b4f7574206f662073746f636b60a01b604082015260600190565b634e487b7160e01b600052601160045260246000fd5b600063ffffffff821680612eea57612eea612ebe565b6000190192915050565b8082028115828204841417612f0b57612f0b612ebe565b92915050565b600082612f2e57634e487b7160e01b600052601260045260246000fd5b500490565b81810381811115612f0b57612f0b612ebe565b60208082526019908201527f5472616e7366657220746f2073656c6c6572206661696c656400000000000000604082015260600190565b6020808252600e908201526d2737ba103a34329039b2b63632b960911b604082015260600190565b80820180821115612f0b57612f0b612ebe565b6020808252600f908201526e13d999995c881b9bdd08199bdd5b99608a1b604082015260600190565b6020808252600d908201526c1499599d5b990819985a5b1959609a1b604082015260600190565b60006001820161301a5761301a612ebe565b5060010190565b600181811c9082168061303557607f821691505b60208210810361305557634e487b7160e01b600052602260045260246000fd5b50919050565b634e487b7160e01b600052604160045260246000fd5b601f8211156130bd576000816000526020600020601f850160051c8101602086101561309a5750805b601f850160051c820191505b818110156130b9578281556001016130a6565b5050505b505050565b815167ffffffffffffffff8111156130dc576130dc61305b565b6130f0816130ea8454613021565b84613071565b602080601f831160018114613125576000841561310d5750858301515b600019600386901b1c1916600185901b1785556130b9565b600085815260208120601f198616915b8281101561315457888601518255948401946001909101908401613135565b50858210156131725787850151600019600388901b60f8161c191681555b5050505050600190811b0190555056fe9b779b17422d0df92223018b32b4d1fa46e071723d6817e2486d003becc55f00a26469706673582212203f9a9f16c4753288ebcfe3019883a4f285137ffaee41773c54e64aa7fd202e3264736f6c63430008180033",
  "linkReferences": {},
  "deployedLinkReferences": {}
}